{
  "abi": [
    {
      "inputs": [],
      "stateMutability": "nonpayable",
      "type": "constructor"
    },
    {
      "anonymous": false,
      "inputs": [
        {
          "indexed": false,
          "internalType": "address",
          "name": "deployer",
          "type": "address"
        }
      ],
      "name": "DeploymentApprovalGranted",
      "type": "event"
    },
    {
      "anonymous": false,
      "inputs": [
        {
          "indexed": false,
          "internalType": "address",
          "name": "deployer",
          "type": "address"
        }
      ],
      "name": "DeploymentApprovalRevoked",
      "type": "event"
    },
    {
      "anonymous": false,
      "inputs": [
        {
          "indexed": false,
          "internalType": "bytes32",
          "name": "implementationID",
          "type": "bytes32"
        },
        {
          "indexed": false,
          "internalType": "address",
          "name": "implementationAddress",
          "type": "address"
        }
      ],
      "name": "ManyToOne_ImplementationCreated",
      "type": "event"
    },
    {
      "anonymous": false,
      "inputs": [
        {
          "indexed": false,
          "internalType": "bytes32",
          "name": "implementationID",
          "type": "bytes32"
        },
        {
          "indexed": false,
          "internalType": "address",
          "name": "implementationAddress",
          "type": "address"
        }
      ],
      "name": "ManyToOne_ImplementationUpdated",
      "type": "event"
    },
    {
      "anonymous": false,
      "inputs": [
        {
          "indexed": false,
          "internalType": "bytes32",
          "name": "implementationID",
          "type": "bytes32"
        },
        {
          "indexed": false,
          "internalType": "address",
          "name": "proxyAddress",
          "type": "address"
        }
      ],
      "name": "ManyToOne_ProxyDeployed",
      "type": "event"
    },
    {
      "anonymous": false,
      "inputs": [
        {
          "indexed": false,
          "internalType": "address",
          "name": "proxyAddress",
          "type": "address"
        },
        {
          "indexed": false,
          "internalType": "address",
          "name": "implementationAddress",
          "type": "address"
        }
      ],
      "name": "OneToOne_ImplementationUpdated",
      "type": "event"
    },
    {
      "anonymous": false,
      "inputs": [
        {
          "indexed": false,
          "internalType": "address",
          "name": "proxyAddress",
          "type": "address"
        },
        {
          "indexed": false,
          "internalType": "address",
          "name": "implementationAddress",
          "type": "address"
        }
      ],
      "name": "OneToOne_ProxyDeployed",
      "type": "event"
    },
    {
      "anonymous": false,
      "inputs": [
        {
          "indexed": false,
          "internalType": "address",
          "name": "newOwner",
          "type": "address"
        }
      ],
      "name": "OwnerSet",
      "type": "event"
    },
    {
      "inputs": [
        {
          "internalType": "address",
          "name": "deployer",
          "type": "address"
        }
      ],
      "name": "approveDeployer",
      "outputs": [],
      "stateMutability": "nonpayable",
      "type": "function"
    },
    {
      "inputs": [
        {
          "internalType": "bytes32",
          "name": "implementationID",
          "type": "bytes32"
        }
      ],
      "name": "computeHolderAddressManyToOne",
      "outputs": [
        {
          "internalType": "address",
          "name": "",
          "type": "address"
        }
      ],
      "stateMutability": "view",
      "type": "function"
    },
    {
      "inputs": [
        {
          "internalType": "address",
          "name": "originator",
          "type": "address"
        },
        {
          "internalType": "bytes32",
          "name": "implementationID",
          "type": "bytes32"
        },
        {
          "internalType": "bytes32",
          "name": "suppliedSalt",
          "type": "bytes32"
        }
      ],
      "name": "computeProxyAddressManyToOne",
      "outputs": [
        {
          "internalType": "address",
          "name": "",
          "type": "address"
        }
      ],
      "stateMutability": "view",
      "type": "function"
    },
    {
      "inputs": [
        {
          "internalType": "address",
          "name": "originator",
          "type": "address"
        },
        {
          "internalType": "bytes32",
          "name": "suppliedSalt",
          "type": "bytes32"
        }
      ],
      "name": "computeProxyAddressOneToOne",
      "outputs": [
        {
          "internalType": "address",
          "name": "",
          "type": "address"
        }
      ],
      "stateMutability": "view",
      "type": "function"
    },
    {
      "inputs": [
        {
          "internalType": "bytes32",
          "name": "implementationID",
          "type": "bytes32"
        },
        {
          "internalType": "address",
          "name": "implementation",
          "type": "address"
        }
      ],
      "name": "createManyToOneProxyRelationship",
      "outputs": [],
      "stateMutability": "nonpayable",
      "type": "function"
    },
    {
      "inputs": [
        {
          "internalType": "bytes32",
          "name": "implementationID",
          "type": "bytes32"
        },
        {
          "internalType": "bytes32",
          "name": "suppliedSalt",
          "type": "bytes32"
        }
      ],
      "name": "deployProxyManyToOne",
      "outputs": [
        {
          "internalType": "address",
          "name": "proxyAddress",
          "type": "address"
        }
      ],
      "stateMutability": "nonpayable",
      "type": "function"
    },
    {
      "inputs": [
        {
          "internalType": "bytes32",
          "name": "suppliedSalt",
          "type": "bytes32"
        },
        {
          "internalType": "address",
          "name": "implementation",
          "type": "address"
        }
      ],
      "name": "deployProxyOneToOne",
      "outputs": [
        {
          "internalType": "address",
          "name": "proxyAddress",
          "type": "address"
        }
      ],
      "stateMutability": "nonpayable",
      "type": "function"
    },
    {
      "inputs": [],
      "name": "getImplementationHolder",
      "outputs": [
        {
          "internalType": "address",
          "name": "",
          "type": "address"
        }
      ],
      "stateMutability": "view",
      "type": "function"
    },
    {
      "inputs": [
        {
          "internalType": "bytes32",
          "name": "implementationID",
          "type": "bytes32"
        }
      ],
      "name": "getImplementationHolder",
      "outputs": [
        {
          "internalType": "address",
          "name": "",
          "type": "address"
        }
      ],
      "stateMutability": "view",
      "type": "function"
    },
    {
      "inputs": [],
      "name": "getOwner",
      "outputs": [
        {
          "internalType": "address",
          "name": "",
          "type": "address"
        }
      ],
      "stateMutability": "view",
      "type": "function"
    },
    {
      "inputs": [
        {
          "internalType": "address",
          "name": "deployer",
          "type": "address"
        }
      ],
      "name": "isApprovedDeployer",
      "outputs": [
        {
          "internalType": "bool",
          "name": "",
          "type": "bool"
        }
      ],
      "stateMutability": "view",
      "type": "function"
    },
    {
      "inputs": [
        {
          "internalType": "address",
          "name": "deployer",
          "type": "address"
        }
      ],
      "name": "revokeDeployerApproval",
      "outputs": [],
      "stateMutability": "nonpayable",
      "type": "function"
    },
    {
      "inputs": [
        {
          "internalType": "bytes32",
          "name": "implementationID",
          "type": "bytes32"
        },
        {
          "internalType": "address",
          "name": "implementation",
          "type": "address"
        }
      ],
      "name": "setImplementationAddressManyToOne",
      "outputs": [],
      "stateMutability": "nonpayable",
      "type": "function"
    },
    {
      "inputs": [
        {
          "internalType": "address",
          "name": "proxyAddress",
          "type": "address"
        },
        {
          "internalType": "address",
          "name": "implementation",
          "type": "address"
        }
      ],
      "name": "setImplementationAddressOneToOne",
      "outputs": [],
      "stateMutability": "nonpayable",
      "type": "function"
    },
    {
      "inputs": [
        {
          "internalType": "address",
          "name": "owner",
          "type": "address"
        }
      ],
      "name": "setOwner",
      "outputs": [],
      "stateMutability": "nonpayable",
      "type": "function"
    }
  ],
  "address": "0x841e1e5A8eCbDB342aeC7D4927dBc66eCb0C9684",
  "args": [],
  "solcInputHash": "0x1b1285ab3a10b92d60308c707038c23737498f43617788408a401b99838cb407",
  "bytecode": "0x608060405234801561001057600080fd5b50600080546001600160a01b031916331790556113b3806100326000396000f3fe608060405234801561001057600080fd5b50600436106100f55760003560e01c8063964c406111610097578063db97034011610066578063db97034014610289578063dc7faa07146102af578063dde5c32f146102e9578063f962854214610315576100f5565b8063964c4061146101e2578063c3242d6b1461020e578063d07ad4981461023a578063d083bc861461026c576100f5565b80635b54cf96116100d35780635b54cf96146101695780635e4ccacf1461018f5780636813a3c2146101ac578063893d20e8146101da576100f5565b806313af4035146100fa5780631a5e5bc5146101225780631da0505d14610161575b600080fd5b6101206004803603602081101561011057600080fd5b50356001600160a01b0316610341565b005b6101456004803603604081101561013857600080fd5b5080359060200135610432565b604080516001600160a01b039092168252519081900360200190f35b6101456105ba565b6101206004803603602081101561017f57600080fd5b50356001600160a01b03166105c9565b610145600480360360208110156101a557600080fd5b5035610674565b610120600480360360408110156101c257600080fd5b506001600160a01b03813581169160200135166106b0565b610145610752565b610120600480360360408110156101f857600080fd5b50803590602001356001600160a01b0316610761565b6101206004803603604081101561022457600080fd5b50803590602001356001600160a01b0316610843565b6101456004803603606081101561025057600080fd5b506001600160a01b038135169060208101359060400135610946565b6101456004803603602081101561028257600080fd5b5035610973565b6101206004803603602081101561029f57600080fd5b50356001600160a01b031661098e565b6102d5600480360360208110156102c557600080fd5b50356001600160a01b0316610a35565b604080519115158252519081900360200190f35b610145600480360360408110156102ff57600080fd5b506001600160a01b038135169060200135610a53565b6101456004803603604081101561032b57600080fd5b50803590602001356001600160a01b0316610a7e565b6000546001600160a01b03163314610390576040805162461bcd60e51b815260206004820152600d60248201526c22a9292fa727aa2fa7aba722a960991b604482015290519081900360640190fd5b6001600160a01b0381166103de576040805162461bcd60e51b815260206004820152601060248201526f4552525f4e554c4c5f4144445245535360801b604482015290519081900360640190fd5b600080546001600160a01b0383166001600160a01b0319909116811790915560408051918252517f50146d0e3c60aa1d17a70635b05494f864e86144a2201275021014fbf08bafe29181900360200190a150565b600080546001600160a01b031633148061045b57503360009081526001602052604090205460ff165b61049f576040805162461bcd60e51b815260206004820152601060248201526f11549497d393d517d054141493d5915160821b604482015290519081900360640190fd5b6000838152600260205260409020546001600160a01b031680610501576040805162461bcd60e51b815260206004820152601560248201527411549497d2535413115351539510551253d397d251605a1b604482015290519081900360640190fd5b600061050e338686610b4a565b600380546001600160a01b0319166001600160a01b03851617905560405190915061055c90600090839061054460208201610ec7565b601f1982820381018352601f90910116604052610b92565b600380546001600160a01b0319169055604080518781526001600160a01b038316602082015281519295507f7b2f1f9260fa3ce14c2f36f34469f302e66164e3da9dbff6b24c723bcd39d115929081900390910190a1505092915050565b6003546001600160a01b031690565b6000546001600160a01b03163314610618576040805162461bcd60e51b815260206004820152600d60248201526c22a9292fa727aa2fa7aba722a960991b604482015290519081900360640190fd5b6001600160a01b038116600081815260016020818152604092839020805460ff1916909217909155815192835290517fa8320d9911124be4bd8a47fe086523f921e913be4659887a823d16c1a7c567b39281900390910190a150565b60006106aa826040518060200161068a90610ed4565b6020820181038252601f19601f8201166040525080519060200120610ca3565b92915050565b6000546001600160a01b031633146106ff576040805162461bcd60e51b815260206004820152600d60248201526c22a9292fa727aa2fa7aba722a960991b604482015290519081900360640190fd5b6107098282610cb7565b604080516001600160a01b0380851682528316602082015281517f52f99278569fbf4dd0ee15eb946bc8d758d614d1917ff0faf9b326dd4aada643929181900390910190a15050565b6000546001600160a01b031690565b6000546001600160a01b031633146107b0576040805162461bcd60e51b815260206004820152600d60248201526c22a9292fa727aa2fa7aba722a960991b604482015290519081900360640190fd5b60006107c86000846040518060200161054490610ed4565b600084815260026020526040902080546001600160a01b0319166001600160a01b03831617905590506107fb8183610cb7565b604080518481526001600160a01b038416602082015281517f06e1ff8de03513a819420b2e2f57764e89938cd88b8769998326edf2703c2338929181900390910190a1505050565b6000546001600160a01b03163314610892576040805162461bcd60e51b815260206004820152600d60248201526c22a9292fa727aa2fa7aba722a960991b604482015290519081900360640190fd5b6000828152600260205260409020546001600160a01b0316806108f4576040805162461bcd60e51b815260206004820152601560248201527411549497d2535413115351539510551253d397d251605a1b604482015290519081900360640190fd5b6108fe8183610cb7565b604080518481526001600160a01b038416602082015281517f43440a819e0e769fd70fc34ea1c8462915e7170e4396fb7595b450a09d0cdf38929181900390910190a1505050565b600080610954858585610b4a565b905061096a816040518060200161068a90610ec7565b95945050505050565b6000908152600260205260409020546001600160a01b031690565b6000546001600160a01b031633146109dd576040805162461bcd60e51b815260206004820152600d60248201526c22a9292fa727aa2fa7aba722a960991b604482015290519081900360640190fd5b6001600160a01b038116600081815260016020908152604091829020805460ff19169055815192835290517ff0f9ad55989ce899961b5c41524ba369cda0a1fcd9301dd0c868430e69c41b759281900390910190a150565b6001600160a01b031660009081526001602052604090205460ff1690565b600080610a608484610e2c565b9050610a76816040518060200161068a90610ee0565b949350505050565b600080546001600160a01b03163314610ace576040805162461bcd60e51b815260206004820152600d60248201526c22a9292fa727aa2fa7aba722a960991b604482015290519081900360640190fd5b6000610ada3385610e2c565b9050610af26000826040518060200161054490610ee0565b9150610afe8284610cb7565b604080516001600160a01b0380851682528516602082015281517f66708f841fd2ea7b5488d47d39951f9f79cb1033a9c5e0d1e98f76cdb8ba1e88929181900390910190a15092915050565b6040805160609490941b6001600160601b0319166020808601919091526034850193909352605480850192909252805180850390920182526074909301909252815191012090565b60008084471015610bea576040805162461bcd60e51b815260206004820152601d60248201527f437265617465323a20696e73756666696369656e742062616c616e6365000000604482015290519081900360640190fd5b8251610c3d576040805162461bcd60e51b815260206004820181905260248201527f437265617465323a2062797465636f6465206c656e677468206973207a65726f604482015290519081900360640190fd5b8383516020850187f590506001600160a01b038116610a76576040805162461bcd60e51b815260206004820152601960248201527f437265617465323a204661696c6564206f6e206465706c6f7900000000000000604482015290519081900360640190fd5b6000610cb0838330610e6b565b9392505050565b610cc081610ec1565b610d04576040805162461bcd60e51b815260206004820152601060248201526f11549497d393d517d0d3d395149050d560821b604482015290519081900360640190fd5b6000826001600160a01b03168260405160200180826001600160a01b03166001600160a01b031681526020019150506040516020818303038152906040526040518082805190602001908083835b60208310610d715780518252601f199092019160209182019101610d52565b6001836020036101000a0380198251168184511680821785525050505050509050019150506000604051808303816000865af19150503d8060008114610dd3576040519150601f19603f3d011682016040523d82523d6000602084013e610dd8565b606091505b5050905080610e27576040805162461bcd60e51b815260206004820152601660248201527511549497d4d15517d05111149154d4d7d4915591549560521b604482015290519081900360640190fd5b505050565b6040805160609390931b6001600160601b0319166020808501919091526034808501939093528151808503909301835260549093019052805191012090565b604080516001600160f81b031960208083019190915260609390931b6001600160601b03191660218201526035810194909452605580850193909352805180850390930183526075909301909252805191012090565b3b151590565b6102b180610eee83390190565b60aa8061119f83390190565b610135806112498339019056fe60a060405234801561001057600080fd5b50336001600160a01b0316631da0505d6040518163ffffffff1660e01b815260040160206040518083038186803b15801561004a57600080fd5b505afa15801561005e573d6000803e3d6000fd5b505050506040513d602081101561007457600080fd5b5051606081901b6001600160601b0319166080526001600160a01b031661020a6100a7600039806046525061020a6000f3fe60806040523661001357610011610017565b005b6100115b61001f61002f565b61002f61002a610031565b6101b0565b565b60405160009081906060906001600160a01b037f0000000000000000000000000000000000000000000000000000000000000000169083818181855afa9150503d806000811461009d576040519150601f19603f3d011682016040523d82523d6000602084013e6100a2565b606091505b50915091508181906101325760405162461bcd60e51b81526004018080602001828103825283818151815260200191508051906020019080838360005b838110156100f75781810151838201526020016100df565b50505050905090810190601f1680156101245780820380516001836020036101000a031916815260200191505b509250505060405180910390fd5b50600081806020019051602081101561014a57600080fd5b505190506001600160a01b0381166101a9576040805162461bcd60e51b815260206004820152601760248201527f4552525f4e554c4c5f494d504c454d454e544154494f4e000000000000000000604482015290519081900360640190fd5b9250505090565b3660008037600080366000845af43d6000803e8080156101cf573d6000f35b3d6000fdfea26469706673582212205ea5c736a3ee4de523d494d0cd9fdcf7acaceb69007e4fe31ab218aa7aef409e64736f6c6343000608003360a0604052348015600f57600080fd5b5033606081901b608052607d61002d60003980600f5250607d6000f3fe6080604052336001600160a01b037f00000000000000000000000000000000000000000000000000000000000000001614603f5760005460005260206000f35b60003560005500fea2646970667358221220110007ea8963cb63ac49d82ebbe9c527d671784f58c4ddbee2d3f38423bfeaa964736f6c6343000608003360a060405234801561001057600080fd5b5033606081901b60805261010561003060003980603252506101056000f3fe608060405236601057600e6013565b005b600e5b60196027565b602560216087565b60ac565b565b336001600160a01b037f00000000000000000000000000000000000000000000000000000000000000001614606057605c6025565b6025565b6000357f913bd12b32b36f36cedaeb6e043912bceb97022755958701789d3108d33a045a55005b7f913bd12b32b36f36cedaeb6e043912bceb97022755958701789d3108d33a045a5490565b3660008037600080366000845af43d6000803e80801560ca573d6000f35b3d6000fdfea2646970667358221220fa349e8a6a3294fc03f618900c3f4393f3c494bd3c2c07860da7ac1bc54a0c6b64736f6c63430006080033a2646970667358221220f265dcfd5b578063864162eac97e32c4551cafe3dadda3b29803403270b3f95e64736f6c63430006080033",
  "devdoc": {
    "details": "Contract that manages deployment and upgrades of delegatecall proxies. * An implementation identifier can be created on the proxy manager which is used to specify the logic address for a particular contract type, and to upgrade the implementation as needed. * A one-to-one proxy is a single proxy contract with an upgradeable implementation address. * A many-to-one proxy is a single upgradeable implementation address that may be used by many proxy contracts.",
    "methods": {
      "approveDeployer(address)": {
        "details": "Allows `deployer` to deploy many-to-one proxies."
      },
      "computeHolderAddressManyToOne(bytes32)": {
        "details": "Computes the create2 address of the implementation holder for `implementationID`.",
        "params": {
          "implementationID": "The identifier for the contract implementation."
        }
      },
      "computeProxyAddressManyToOne(address,bytes32,bytes32)": {
        "details": "Computes the create2 address for a many-to-one proxy for the implementation `implementationID` requested by `originator` using `suppliedSalt`.",
        "params": {
          "implementationID": "The identifier for the contract implementation.",
          "originator": "Address of the account requesting deployment.",
          "suppliedSalt": "Salt provided by the account requesting deployment."
        }
      },
      "computeProxyAddressOneToOne(address,bytes32)": {
        "details": "Computes the create2 address for a one-to-one proxy requested by `originator` using `suppliedSalt`.",
        "params": {
          "originator": "Address of the account requesting deployment.",
          "suppliedSalt": "Salt provided by the account requesting deployment."
        }
      },
      "createManyToOneProxyRelationship(bytes32,address)": {
        "details": "Creates a many-to-one proxy relationship.   * Deploys an implementation holder contract which stores the implementation address for many proxies. The implementation address can be updated on the holder to change the runtime code used by all its proxies.",
        "params": {
          "implementation": "Address with the runtime code the proxies should use.",
          "implementationID": "ID for the implementation, used to identify the proxies that use it. Also used as the salt in the create2 call when deploying the implementation holder contract."
        }
      },
      "deployProxyManyToOne(bytes32,bytes32)": {
        "details": "Deploy a proxy with a many-to-one relationship with its implemenation.   * The proxy will call the implementation holder for every transaction to determine the address to use in calls.",
        "params": {
          "implementationID": "Identifier for the proxy's implementation.",
          "suppliedSalt": "Salt provided by the account requesting deployment."
        }
      },
      "deployProxyOneToOne(bytes32,address)": {
        "details": "Deploy a proxy contract with a one-to-one relationship with its implementation.   * The proxy will have its own implementation address which can be updated by the proxy manager.",
        "params": {
          "implementation": "Address of the contract with the runtime code that the proxy should use.",
          "suppliedSalt": "Salt provided by the account requesting deployment."
        }
      },
      "getImplementationHolder()": {
        "details": "Queries the temporary storage value `_implementationHolder`. This is used in the constructor of the many-to-one proxy contract so that the create2 address is static (adding constructor arguments would change the codehash) and the implementation holder can be stored as a constant."
      },
      "getImplementationHolder(bytes32)": {
        "details": "Returns the address of the implementation holder contract for `implementationID`."
      },
      "revokeDeployerApproval(address)": {
        "details": "Prevents `deployer` from deploying many-to-one proxies."
      },
      "setImplementationAddressManyToOne(bytes32,address)": {
        "details": "Updates the implementation address for a many-to-one proxy relationship.",
        "params": {
          "implementation": "Address with the runtime code the proxies should use.",
          "implementationID": "Identifier for the implementation."
        }
      },
      "setImplementationAddressOneToOne(address,address)": {
        "details": "Updates the implementation address for a one-to-one proxy.   * Note: This could work for many-to-one as well if the caller provides the implementation holder address in place of the proxy address, as they use the same access control and update mechanism.",
        "params": {
          "implementation": "Address with the runtime code for the proxy to use.",
          "proxyAddress": "Address of the deployed proxy"
        }
      }
    }
  },
  "userdoc": {
    "methods": {}
  },
  "storageLayout": {
    "storage": [
      {
        "astId": 1016,
        "contract": "contracts/DelegateCallProxyManager.sol:DelegateCallProxyManager",
        "label": "_owner",
        "offset": 0,
        "slot": "0",
        "type": "t_address"
      },
      {
        "astId": 437,
        "contract": "contracts/DelegateCallProxyManager.sol:DelegateCallProxyManager",
        "label": "_approvedDeployers",
        "offset": 0,
        "slot": "1",
        "type": "t_mapping(t_address,t_bool)"
      },
      {
        "astId": 441,
        "contract": "contracts/DelegateCallProxyManager.sol:DelegateCallProxyManager",
        "label": "_implementationHolders",
        "offset": 0,
        "slot": "2",
        "type": "t_mapping(t_bytes32,t_address)"
      },
      {
        "astId": 443,
        "contract": "contracts/DelegateCallProxyManager.sol:DelegateCallProxyManager",
        "label": "_implementationHolder",
        "offset": 0,
        "slot": "3",
        "type": "t_address"
      }
    ],
    "types": {
      "t_address": {
        "encoding": "inplace",
        "label": "address",
        "numberOfBytes": "20"
      },
      "t_bool": {
        "encoding": "inplace",
        "label": "bool",
        "numberOfBytes": "1"
      },
      "t_bytes32": {
        "encoding": "inplace",
        "label": "bytes32",
        "numberOfBytes": "32"
      },
      "t_mapping(t_address,t_bool)": {
        "encoding": "mapping",
        "key": "t_address",
        "label": "mapping(address => bool)",
        "numberOfBytes": "32",
        "value": "t_bool"
      },
      "t_mapping(t_bytes32,t_address)": {
        "encoding": "mapping",
        "key": "t_bytes32",
        "label": "mapping(bytes32 => address)",
        "numberOfBytes": "32",
        "value": "t_address"
      }
    }
  },
  "gasEstimates": {
    "creation": {
      "codeDepositCost": "1008600",
      "executionCost": "21888",
      "totalCost": "1030488"
    },
    "external": {
      "approveDeployer(address)": "23058",
      "computeHolderAddressManyToOne(bytes32)": "887",
      "computeProxyAddressManyToOne(address,bytes32,bytes32)": "1438",
      "computeProxyAddressOneToOne(address,bytes32)": "1239",
      "createManyToOneProxyRelationship(bytes32,address)": "infinite",
      "deployProxyManyToOne(bytes32,bytes32)": "infinite",
      "deployProxyOneToOne(bytes32,address)": "infinite",
      "getImplementationHolder()": "1105",
      "getImplementationHolder(bytes32)": "1234",
      "getOwner()": "1126",
      "isApprovedDeployer(address)": "1198",
      "revokeDeployerApproval(address)": "23045",
      "setImplementationAddressManyToOne(bytes32,address)": "infinite",
      "setImplementationAddressOneToOne(address,address)": "infinite",
      "setOwner(address)": "23028"
    },
    "internal": {
      "_setImplementation(address,address)": "infinite"
    }
  }
}