{
  "abi": [
    {
      "inputs": [],
      "stateMutability": "nonpayable",
      "type": "constructor"
    },
    {
      "anonymous": false,
      "inputs": [
        {
          "indexed": false,
          "internalType": "address",
          "name": "deployer",
          "type": "address"
        }
      ],
      "name": "DeploymentApprovalGranted",
      "type": "event"
    },
    {
      "anonymous": false,
      "inputs": [
        {
          "indexed": false,
          "internalType": "address",
          "name": "deployer",
          "type": "address"
        }
      ],
      "name": "DeploymentApprovalRevoked",
      "type": "event"
    },
    {
      "anonymous": false,
      "inputs": [
        {
          "indexed": false,
          "internalType": "bytes32",
          "name": "implementationID",
          "type": "bytes32"
        },
        {
          "indexed": false,
          "internalType": "address",
          "name": "implementationAddress",
          "type": "address"
        }
      ],
      "name": "ManyToOne_ImplementationCreated",
      "type": "event"
    },
    {
      "anonymous": false,
      "inputs": [
        {
          "indexed": false,
          "internalType": "bytes32",
          "name": "implementationID",
          "type": "bytes32"
        }
      ],
      "name": "ManyToOne_ImplementationLocked",
      "type": "event"
    },
    {
      "anonymous": false,
      "inputs": [
        {
          "indexed": false,
          "internalType": "bytes32",
          "name": "implementationID",
          "type": "bytes32"
        },
        {
          "indexed": false,
          "internalType": "address",
          "name": "implementationAddress",
          "type": "address"
        }
      ],
      "name": "ManyToOne_ImplementationUpdated",
      "type": "event"
    },
    {
      "anonymous": false,
      "inputs": [
        {
          "indexed": false,
          "internalType": "bytes32",
          "name": "implementationID",
          "type": "bytes32"
        },
        {
          "indexed": false,
          "internalType": "address",
          "name": "proxyAddress",
          "type": "address"
        }
      ],
      "name": "ManyToOne_ProxyDeployed",
      "type": "event"
    },
    {
      "anonymous": false,
      "inputs": [
        {
          "indexed": false,
          "internalType": "address",
          "name": "proxyAddress",
          "type": "address"
        }
      ],
      "name": "OneToOne_ImplementationLocked",
      "type": "event"
    },
    {
      "anonymous": false,
      "inputs": [
        {
          "indexed": false,
          "internalType": "address",
          "name": "proxyAddress",
          "type": "address"
        },
        {
          "indexed": false,
          "internalType": "address",
          "name": "implementationAddress",
          "type": "address"
        }
      ],
      "name": "OneToOne_ImplementationUpdated",
      "type": "event"
    },
    {
      "anonymous": false,
      "inputs": [
        {
          "indexed": false,
          "internalType": "address",
          "name": "proxyAddress",
          "type": "address"
        },
        {
          "indexed": false,
          "internalType": "address",
          "name": "implementationAddress",
          "type": "address"
        }
      ],
      "name": "OneToOne_ProxyDeployed",
      "type": "event"
    },
    {
      "anonymous": false,
      "inputs": [
        {
          "indexed": true,
          "internalType": "address",
          "name": "previousOwner",
          "type": "address"
        },
        {
          "indexed": true,
          "internalType": "address",
          "name": "newOwner",
          "type": "address"
        }
      ],
      "name": "OwnershipTransferred",
      "type": "event"
    },
    {
      "inputs": [
        {
          "internalType": "address",
          "name": "deployer",
          "type": "address"
        }
      ],
      "name": "approveDeployer",
      "outputs": [],
      "stateMutability": "nonpayable",
      "type": "function"
    },
    {
      "inputs": [
        {
          "internalType": "bytes32",
          "name": "implementationID",
          "type": "bytes32"
        }
      ],
      "name": "computeHolderAddressManyToOne",
      "outputs": [
        {
          "internalType": "address",
          "name": "",
          "type": "address"
        }
      ],
      "stateMutability": "view",
      "type": "function"
    },
    {
      "inputs": [
        {
          "internalType": "address",
          "name": "originator",
          "type": "address"
        },
        {
          "internalType": "bytes32",
          "name": "implementationID",
          "type": "bytes32"
        },
        {
          "internalType": "bytes32",
          "name": "suppliedSalt",
          "type": "bytes32"
        }
      ],
      "name": "computeProxyAddressManyToOne",
      "outputs": [
        {
          "internalType": "address",
          "name": "",
          "type": "address"
        }
      ],
      "stateMutability": "view",
      "type": "function"
    },
    {
      "inputs": [
        {
          "internalType": "address",
          "name": "originator",
          "type": "address"
        },
        {
          "internalType": "bytes32",
          "name": "suppliedSalt",
          "type": "bytes32"
        }
      ],
      "name": "computeProxyAddressOneToOne",
      "outputs": [
        {
          "internalType": "address",
          "name": "",
          "type": "address"
        }
      ],
      "stateMutability": "view",
      "type": "function"
    },
    {
      "inputs": [
        {
          "internalType": "bytes32",
          "name": "implementationID",
          "type": "bytes32"
        },
        {
          "internalType": "address",
          "name": "implementation",
          "type": "address"
        }
      ],
      "name": "createManyToOneProxyRelationship",
      "outputs": [],
      "stateMutability": "nonpayable",
      "type": "function"
    },
    {
      "inputs": [
        {
          "internalType": "bytes32",
          "name": "implementationID",
          "type": "bytes32"
        },
        {
          "internalType": "bytes32",
          "name": "suppliedSalt",
          "type": "bytes32"
        }
      ],
      "name": "deployProxyManyToOne",
      "outputs": [
        {
          "internalType": "address",
          "name": "proxyAddress",
          "type": "address"
        }
      ],
      "stateMutability": "nonpayable",
      "type": "function"
    },
    {
      "inputs": [
        {
          "internalType": "bytes32",
          "name": "suppliedSalt",
          "type": "bytes32"
        },
        {
          "internalType": "address",
          "name": "implementation",
          "type": "address"
        }
      ],
      "name": "deployProxyOneToOne",
      "outputs": [
        {
          "internalType": "address",
          "name": "proxyAddress",
          "type": "address"
        }
      ],
      "stateMutability": "nonpayable",
      "type": "function"
    },
    {
      "inputs": [],
      "name": "getImplementationHolder",
      "outputs": [
        {
          "internalType": "address",
          "name": "",
          "type": "address"
        }
      ],
      "stateMutability": "view",
      "type": "function"
    },
    {
      "inputs": [
        {
          "internalType": "bytes32",
          "name": "implementationID",
          "type": "bytes32"
        }
      ],
      "name": "getImplementationHolder",
      "outputs": [
        {
          "internalType": "address",
          "name": "",
          "type": "address"
        }
      ],
      "stateMutability": "view",
      "type": "function"
    },
    {
      "inputs": [
        {
          "internalType": "address",
          "name": "deployer",
          "type": "address"
        }
      ],
      "name": "isApprovedDeployer",
      "outputs": [
        {
          "internalType": "bool",
          "name": "",
          "type": "bool"
        }
      ],
      "stateMutability": "view",
      "type": "function"
    },
    {
      "inputs": [
        {
          "internalType": "bytes32",
          "name": "implementationID",
          "type": "bytes32"
        }
      ],
      "name": "isImplementationLocked",
      "outputs": [
        {
          "internalType": "bool",
          "name": "",
          "type": "bool"
        }
      ],
      "stateMutability": "view",
      "type": "function"
    },
    {
      "inputs": [
        {
          "internalType": "address",
          "name": "proxyAddress",
          "type": "address"
        }
      ],
      "name": "isImplementationLocked",
      "outputs": [
        {
          "internalType": "bool",
          "name": "",
          "type": "bool"
        }
      ],
      "stateMutability": "view",
      "type": "function"
    },
    {
      "inputs": [
        {
          "internalType": "bytes32",
          "name": "implementationID",
          "type": "bytes32"
        }
      ],
      "name": "lockImplementationManyToOne",
      "outputs": [],
      "stateMutability": "nonpayable",
      "type": "function"
    },
    {
      "inputs": [
        {
          "internalType": "address",
          "name": "proxyAddress",
          "type": "address"
        }
      ],
      "name": "lockImplementationOneToOne",
      "outputs": [],
      "stateMutability": "nonpayable",
      "type": "function"
    },
    {
      "inputs": [],
      "name": "owner",
      "outputs": [
        {
          "internalType": "address",
          "name": "",
          "type": "address"
        }
      ],
      "stateMutability": "view",
      "type": "function"
    },
    {
      "inputs": [],
      "name": "renounceOwnership",
      "outputs": [],
      "stateMutability": "nonpayable",
      "type": "function"
    },
    {
      "inputs": [
        {
          "internalType": "address",
          "name": "deployer",
          "type": "address"
        }
      ],
      "name": "revokeDeployerApproval",
      "outputs": [],
      "stateMutability": "nonpayable",
      "type": "function"
    },
    {
      "inputs": [
        {
          "internalType": "bytes32",
          "name": "implementationID",
          "type": "bytes32"
        },
        {
          "internalType": "address",
          "name": "implementation",
          "type": "address"
        }
      ],
      "name": "setImplementationAddressManyToOne",
      "outputs": [],
      "stateMutability": "nonpayable",
      "type": "function"
    },
    {
      "inputs": [
        {
          "internalType": "address",
          "name": "proxyAddress",
          "type": "address"
        },
        {
          "internalType": "address",
          "name": "implementation",
          "type": "address"
        }
      ],
      "name": "setImplementationAddressOneToOne",
      "outputs": [],
      "stateMutability": "nonpayable",
      "type": "function"
    },
    {
      "inputs": [
        {
          "internalType": "address",
          "name": "newOwner",
          "type": "address"
        }
      ],
      "name": "transferOwnership",
      "outputs": [],
      "stateMutability": "nonpayable",
      "type": "function"
    }
  ],
  "address": "0x2fD9B976b7B4310F3d57A19fB011e1E2FEE93251",
  "args": [],
  "solcInputHash": "0xe2e1bfbe36d976ea980d3a6402412b73e87e59eccac865a6c8a39ee96d8406e0",
  "bytecode": "0x608060405234801561001057600080fd5b50600061001b61006a565b600080546001600160a01b0319166001600160a01b0383169081178255604051929350917f8be0079c531659141344cd1fd0a4f28419497f9722a3daafe3b4186f6b6457e0908290a35061006e565b3390565b61193c8061007d6000396000f3fe608060405234801561001057600080fd5b506004361061012c5760003560e01c80639225ce23116100ad578063db97034011610071578063db9703401461033c578063dc7faa0714610362578063dde5c32f14610388578063f2fde38b146103b4578063f9628542146103da5761012c565b80639225ce231461026f578063964c406114610295578063c3242d6b146102c1578063d07ad498146102ed578063d083bc861461031f5761012c565b80635e4ccacf116100f45780635e4ccacf146101ee5780636813a3c21461020b5780636daf503514610239578063715018a61461025f5780638da5cb5b146102675761012c565b80631a5e5bc5146101315780631da0505d146101705780632275a830146101785780634f85f3ea146101975780635b54cf96146101c8575b600080fd5b6101546004803603604081101561014757600080fd5b5080359060200135610406565b604080516001600160a01b039092168252519081900360200190f35b6101546105ba565b6101956004803603602081101561018e57600080fd5b50356105c9565b005b6101b4600480360360208110156101ad57600080fd5b50356106df565b604080519115158252519081900360200190f35b610195600480360360208110156101de57600080fd5b50356001600160a01b0316610762565b6101546004803603602081101561020457600080fd5b5035610816565b6101956004803603604081101561022157600080fd5b506001600160a01b0381358116916020013516610848565b6101956004803603602081101561024f57600080fd5b50356001600160a01b031661095d565b610195610a10565b610154610ab2565b6101b46004803603602081101561028557600080fd5b50356001600160a01b0316610ac1565b610195600480360360408110156102ab57600080fd5b50803590602001356001600160a01b0316610adf565b610195600480360360408110156102d757600080fd5b50803590602001356001600160a01b0316610bca565b6101546004803603606081101561030357600080fd5b506001600160a01b038135169060208101359060400135610d40565b6101546004803603602081101561033557600080fd5b5035610d83565b6101956004803603602081101561035257600080fd5b50356001600160a01b0316610d9e565b6101b46004803603602081101561037857600080fd5b50356001600160a01b0316610e4e565b6101546004803603604081101561039e57600080fd5b506001600160a01b038135169060200135610e6c565b610195600480360360208110156103ca57600080fd5b50356001600160a01b0316610ead565b610154600480360360408110156103f057600080fd5b50803590602001356001600160a01b0316610fa5565b600080610411611082565b6001600160a01b03811660009081526001602052604090205490915060ff1680610453575061043e610ab2565b6001600160a01b0316816001600160a01b0316145b610497576040805162461bcd60e51b815260206004820152601060248201526f11549497d393d517d054141493d5915160821b604482015290519081900360640190fd5b6000848152600260205260409020546001600160a01b0316806104f9576040805162461bcd60e51b815260206004820152601560248201527411549497d2535413115351539510551253d397d251605a1b604482015290519081900360640190fd5b600061050d610506611082565b8787611086565b600480546001600160a01b0319166001600160a01b03851617905560405190915061055b9060009083906105436020820161140a565b601f1982820381018352601f909101166040526110d3565b600480546001600160a01b0319169055604080518881526001600160a01b038316602082015281519296507f7b2f1f9260fa3ce14c2f36f34469f302e66164e3da9dbff6b24c723bcd39d115929081900390910190a150505092915050565b6004546001600160a01b031690565b6105d1611082565b6000546001600160a01b03908116911614610621576040805162461bcd60e51b815260206004820181905260248201526000805160206118e7833981519152604482015290519081900360640190fd5b6000818152600260205260409020546001600160a01b031680610683576040805162461bcd60e51b815260206004820152601560248201527411549497d2535413115351539510551253d397d251605a1b604482015290519081900360640190fd5b6001600160a01b038116600090815260036020908152604091829020805460ff19166001179055815184815291517fd62bff6e969424de31ee669b9853f7f90fc209ef41f5721bf62c502e7b2a3d089281900390910190a15050565b6000818152600260205260408120546001600160a01b031680610741576040805162461bcd60e51b815260206004820152601560248201527411549497d2535413115351539510551253d397d251605a1b604482015290519081900360640190fd5b6001600160a01b031660009081526003602052604090205460ff1692915050565b61076a611082565b6000546001600160a01b039081169116146107ba576040805162461bcd60e51b815260206004820181905260248201526000805160206118e7833981519152604482015290519081900360640190fd5b6001600160a01b038116600081815260016020818152604092839020805460ff1916909217909155815192835290517fa8320d9911124be4bd8a47fe086523f921e913be4659887a823d16c1a7c567b39281900390910190a150565b6000610842827f11c370493a726a0ffa93d42b399ad046f1b5a543b6e72f1a64f1488dc1c58f2c6111e4565b92915050565b610850611082565b6000546001600160a01b039081169116146108a0576040805162461bcd60e51b815260206004820181905260248201526000805160206118e7833981519152604482015290519081900360640190fd5b6001600160a01b03821660009081526003602052604090205460ff161561090a576040805162461bcd60e51b815260206004820152601960248201527811549497d2535413115351539510551253d397d313d0d2d151603a1b604482015290519081900360640190fd5b61091482826111f8565b604080516001600160a01b0380851682528316602082015281517f52f99278569fbf4dd0ee15eb946bc8d758d614d1917ff0faf9b326dd4aada643929181900390910190a15050565b610965611082565b6000546001600160a01b039081169116146109b5576040805162461bcd60e51b815260206004820181905260248201526000805160206118e7833981519152604482015290519081900360640190fd5b6001600160a01b038116600081815260036020908152604091829020805460ff19166001179055815192835290517ff51e53e36caf2e8338b84c69c3919eb728c75e5961f866d09697d8cdce7432df9281900390910190a150565b610a18611082565b6000546001600160a01b03908116911614610a68576040805162461bcd60e51b815260206004820181905260248201526000805160206118e7833981519152604482015290519081900360640190fd5b600080546040516001600160a01b03909116907f8be0079c531659141344cd1fd0a4f28419497f9722a3daafe3b4186f6b6457e0908390a3600080546001600160a01b0319169055565b6000546001600160a01b031690565b6001600160a01b031660009081526003602052604090205460ff1690565b610ae7611082565b6000546001600160a01b03908116911614610b37576040805162461bcd60e51b815260206004820181905260248201526000805160206118e7833981519152604482015290519081900360640190fd5b6000610b4f6000846040518060200161054390611417565b600084815260026020526040902080546001600160a01b0319166001600160a01b0383161790559050610b8281836111f8565b604080518481526001600160a01b038416602082015281517f06e1ff8de03513a819420b2e2f57764e89938cd88b8769998326edf2703c2338929181900390910190a1505050565b610bd2611082565b6000546001600160a01b03908116911614610c22576040805162461bcd60e51b815260206004820181905260248201526000805160206118e7833981519152604482015290519081900360640190fd5b6000828152600260205260409020546001600160a01b031680610c84576040805162461bcd60e51b815260206004820152601560248201527411549497d2535413115351539510551253d397d251605a1b604482015290519081900360640190fd5b6001600160a01b03811660009081526003602052604090205460ff1615610cee576040805162461bcd60e51b815260206004820152601960248201527811549497d2535413115351539510551253d397d313d0d2d151603a1b604482015290519081900360640190fd5b610cf881836111f8565b604080518481526001600160a01b038416602082015281517f43440a819e0e769fd70fc34ea1c8462915e7170e4396fb7595b450a09d0cdf38929181900390910190a1505050565b600080610d4e858585611086565b9050610d7a817fa035ad05a1663db5bfd455b99cd7c6ac6bd49269738458eda140e0b78ed53f796111e4565b95945050505050565b6000908152600260205260409020546001600160a01b031690565b610da6611082565b6000546001600160a01b03908116911614610df6576040805162461bcd60e51b815260206004820181905260248201526000805160206118e7833981519152604482015290519081900360640190fd5b6001600160a01b038116600081815260016020908152604091829020805460ff19169055815192835290517ff0f9ad55989ce899961b5c41524ba369cda0a1fcd9301dd0c868430e69c41b759281900390910190a150565b6001600160a01b031660009081526001602052604090205460ff1690565b600080610e798484611364565b9050610ea5817f63d9f7b5931b69188c8f6b806606f25892f1bb17b7f7e966fe3a32c04493aee46111e4565b949350505050565b610eb5611082565b6000546001600160a01b03908116911614610f05576040805162461bcd60e51b815260206004820181905260248201526000805160206118e7833981519152604482015290519081900360640190fd5b6001600160a01b038116610f4a5760405162461bcd60e51b81526004018080602001828103825260268152602001806118c16026913960400191505060405180910390fd5b600080546040516001600160a01b03808516939216917f8be0079c531659141344cd1fd0a4f28419497f9722a3daafe3b4186f6b6457e091a3600080546001600160a01b0319166001600160a01b0392909216919091179055565b6000610faf611082565b6000546001600160a01b03908116911614610fff576040805162461bcd60e51b815260206004820181905260248201526000805160206118e7833981519152604482015290519081900360640190fd5b600061101261100c611082565b85611364565b905061102a6000826040518060200161054390611423565b915061103682846111f8565b604080516001600160a01b0380851682528516602082015281517f66708f841fd2ea7b5488d47d39951f9f79cb1033a9c5e0d1e98f76cdb8ba1e88929181900390910190a15092915050565b3390565b6040805160609490941b6bffffffffffffffffffffffff19166020808601919091526034850193909352605480850192909252805180850390920182526074909301909252815191012090565b6000808447101561112b576040805162461bcd60e51b815260206004820152601d60248201527f437265617465323a20696e73756666696369656e742062616c616e6365000000604482015290519081900360640190fd5b825161117e576040805162461bcd60e51b815260206004820181905260248201527f437265617465323a2062797465636f6465206c656e677468206973207a65726f604482015290519081900360640190fd5b8383516020850187f590506001600160a01b038116610ea5576040805162461bcd60e51b815260206004820152601960248201527f437265617465323a204661696c6564206f6e206465706c6f7900000000000000604482015290519081900360640190fd5b60006111f18383306113a9565b9392505050565b61120181611404565b611245576040805162461bcd60e51b815260206004820152601060248201526f11549497d393d517d0d3d395149050d560821b604482015290519081900360640190fd5b6000826001600160a01b03168260405160200180826001600160a01b031681526020019150506040516020818303038152906040526040518082805190602001908083835b602083106112a95780518252601f19909201916020918201910161128a565b6001836020036101000a0380198251168184511680821785525050505050509050019150506000604051808303816000865af19150503d806000811461130b576040519150601f19603f3d011682016040523d82523d6000602084013e611310565b606091505b505090508061135f576040805162461bcd60e51b815260206004820152601660248201527511549497d4d15517d05111149154d4d7d4915591549560521b604482015290519081900360640190fd5b505050565b6000828260405160200180836001600160a01b031660601b81526014018281526020019250505060405160208183030381529060405280519060200120905092915050565b604080516001600160f81b031960208083019190915260609390931b6bffffffffffffffffffffffff191660218201526035810194909452605580850193909352805180850390930183526075909301909252805191012090565b3b151590565b6102b18061143183390190565b60aa806116e283390190565b6101358061178c8339019056fe60a060405234801561001057600080fd5b50336001600160a01b0316631da0505d6040518163ffffffff1660e01b815260040160206040518083038186803b15801561004a57600080fd5b505afa15801561005e573d6000803e3d6000fd5b505050506040513d602081101561007457600080fd5b5051606081901b6001600160601b0319166080526001600160a01b031661020a6100a7600039806046525061020a6000f3fe60806040523661001357610011610017565b005b6100115b61001f61002f565b61002f61002a610031565b6101b0565b565b60405160009081906060906001600160a01b037f0000000000000000000000000000000000000000000000000000000000000000169083818181855afa9150503d806000811461009d576040519150601f19603f3d011682016040523d82523d6000602084013e6100a2565b606091505b50915091508181906101325760405162461bcd60e51b81526004018080602001828103825283818151815260200191508051906020019080838360005b838110156100f75781810151838201526020016100df565b50505050905090810190601f1680156101245780820380516001836020036101000a031916815260200191505b509250505060405180910390fd5b50600081806020019051602081101561014a57600080fd5b505190506001600160a01b0381166101a9576040805162461bcd60e51b815260206004820152601760248201527f4552525f4e554c4c5f494d504c454d454e544154494f4e000000000000000000604482015290519081900360640190fd5b9250505090565b3660008037600080366000845af43d6000803e8080156101cf573d6000f35b3d6000fdfea26469706673582212209b0f8ebe5564b0d1fb938189635d5a7b33088937e2d48e4ff88b4fcf7c850bb164736f6c634300060c003360a0604052348015600f57600080fd5b5033606081901b608052607d61002d60003980600f5250607d6000f3fe6080604052336001600160a01b037f00000000000000000000000000000000000000000000000000000000000000001614603f5760005460005260206000f35b60003560005500fea2646970667358221220586d996f67b2b77c909aa0c1fe104107601628c9f7a86cb3c741767b2633202c64736f6c634300060c003360a060405234801561001057600080fd5b5033606081901b60805261010561003060003980603252506101056000f3fe608060405236601057600e6013565b005b600e5b60196027565b602560216087565b60ac565b565b336001600160a01b037f00000000000000000000000000000000000000000000000000000000000000001614606057605c6025565b6025565b6000357f913bd12b32b36f36cedaeb6e043912bceb97022755958701789d3108d33a045a55005b7f913bd12b32b36f36cedaeb6e043912bceb97022755958701789d3108d33a045a5490565b3660008037600080366000845af43d6000803e80801560ca573d6000f35b3d6000fdfea26469706673582212201cea50d0a8321e43144e2aa3de79459912e55e2454e4d0ef3a6d4b12f177e0a964736f6c634300060c00334f776e61626c653a206e6577206f776e657220697320746865207a65726f20616464726573734f776e61626c653a2063616c6c6572206973206e6f7420746865206f776e6572a2646970667358221220fea140dfc789e92092f05b36a8022b40fefd4d25bf63dae7f19cb3a545f054bb64736f6c634300060c0033",
  "devdoc": {
    "details": "Contract that manages deployment and upgrades of delegatecall proxies. An implementation identifier can be created on the proxy manager which is used to specify the logic address for a particular contract type, and to upgrade the implementation as needed. ====== Proxy Types ====== A one-to-one proxy is a single proxy contract with an upgradeable implementation address. A many-to-one proxy is a single upgradeable implementation address that may be used by many proxy contracts. ====== Access Control ====== The proxy manager has a single address as its owner. The owner is the sole account with the following permissions: - Create new many-to-one implementations - Create new one-to-one proxies - Modify the implementation address of existing proxies - Lock proxies - Designate approved deployers - Remove approved deployers - Modify the owner address Approved deployers may only deploy many-to-one proxies. ====== Upgrades ====== Proxies can be upgraded by the owner if they are not locked. Many-to-one proxy implementations are upgraded by calling the holder contract for the implementation ID being upgraded. One-to-one proxies are upgraded by calling the proxy contract directly. The owner can lock a one-to-one proxy or many-to-one implementation ID so that it becomes impossible to upgrade.",
    "kind": "dev",
    "methods": {
      "approveDeployer(address)": {
        "details": "Allows `deployer` to deploy many-to-one proxies."
      },
      "computeHolderAddressManyToOne(bytes32)": {
        "details": "Computes the create2 address of the implementation holder for `implementationID`.",
        "params": {
          "implementationID": "The identifier for the contract implementation."
        }
      },
      "computeProxyAddressManyToOne(address,bytes32,bytes32)": {
        "details": "Computes the create2 address for a many-to-one proxy for the implementation `implementationID` requested by `originator` using `suppliedSalt`.",
        "params": {
          "implementationID": "The identifier for the contract implementation.",
          "originator": "Address of the account requesting deployment.",
          "suppliedSalt": "Salt provided by the account requesting deployment."
        }
      },
      "computeProxyAddressOneToOne(address,bytes32)": {
        "details": "Computes the create2 address for a one-to-one proxy requested by `originator` using `suppliedSalt`.",
        "params": {
          "originator": "Address of the account requesting deployment.",
          "suppliedSalt": "Salt provided by the account requesting deployment."
        }
      },
      "createManyToOneProxyRelationship(bytes32,address)": {
        "details": "Creates a many-to-one proxy relationship. Deploys an implementation holder contract which stores the implementation address for many proxies. The implementation address can be updated on the holder to change the runtime code used by all its proxies.",
        "params": {
          "implementation": "Address with the runtime code the proxies should use.",
          "implementationID": "ID for the implementation, used to identify the proxies that use it. Also used as the salt in the create2 call when deploying the implementation holder contract."
        }
      },
      "deployProxyManyToOne(bytes32,bytes32)": {
        "details": "Deploy a proxy with a many-to-one relationship with its implemenation. The proxy will call the implementation holder for every transaction to determine the address to use in calls.",
        "params": {
          "implementationID": "Identifier for the proxy's implementation.",
          "suppliedSalt": "Salt provided by the account requesting deployment."
        }
      },
      "deployProxyOneToOne(bytes32,address)": {
        "details": "Deploy a proxy contract with a one-to-one relationship with its implementation. The proxy will have its own implementation address which can be updated by the proxy manager.",
        "params": {
          "implementation": "Address of the contract with the runtime code that the proxy should use.",
          "suppliedSalt": "Salt provided by the account requesting deployment."
        }
      },
      "getImplementationHolder()": {
        "details": "Queries the temporary storage value `_implementationHolder`. This is used in the constructor of the many-to-one proxy contract so that the create2 address is static (adding constructor arguments would change the codehash) and the implementation holder can be stored as a constant."
      },
      "getImplementationHolder(bytes32)": {
        "details": "Returns the address of the implementation holder contract for `implementationID`."
      },
      "isApprovedDeployer(address)": {
        "details": "Returns a boolean stating whether `deployer` is allowed to deploy many-to-one proxies."
      },
      "isImplementationLocked(address)": {
        "details": "Returns a boolean stating whether `proxyAddress` is locked."
      },
      "isImplementationLocked(bytes32)": {
        "details": "Returns a boolean stating whether `implementationID` is locked."
      },
      "lockImplementationManyToOne(bytes32)": {
        "details": "Lock the current implementation for `implementationID` so that it can never be upgraded again."
      },
      "lockImplementationOneToOne(address)": {
        "details": "Lock the current implementation for `proxyAddress` so that it can never be upgraded again."
      },
      "owner()": {
        "details": "Returns the address of the current owner."
      },
      "renounceOwnership()": {
        "details": "Leaves the contract without owner. It will not be possible to call `onlyOwner` functions anymore. Can only be called by the current owner. NOTE: Renouncing ownership will leave the contract without an owner, thereby removing any functionality that is only available to the owner."
      },
      "revokeDeployerApproval(address)": {
        "details": "Prevents `deployer` from deploying many-to-one proxies."
      },
      "setImplementationAddressManyToOne(bytes32,address)": {
        "details": "Updates the implementation address for a many-to-one proxy relationship.",
        "params": {
          "implementation": "Address with the runtime code the proxies should use.",
          "implementationID": "Identifier for the implementation."
        }
      },
      "setImplementationAddressOneToOne(address,address)": {
        "details": "Updates the implementation address for a one-to-one proxy. Note: This could work for many-to-one as well if the caller provides the implementation holder address in place of the proxy address, as they use the same access control and update mechanism.",
        "params": {
          "implementation": "Address with the runtime code for the proxy to use.",
          "proxyAddress": "Address of the deployed proxy"
        }
      },
      "transferOwnership(address)": {
        "details": "Transfers ownership of the contract to a new account (`newOwner`). Can only be called by the current owner."
      }
    },
    "version": 1
  },
  "userdoc": {
    "kind": "user",
    "methods": {},
    "version": 1
  },
  "storageLayout": {
    "storage": [
      {
        "astId": 30,
        "contract": "temp-contracts/DelegateCallProxyManager.sol:DelegateCallProxyManager",
        "label": "_owner",
        "offset": 0,
        "slot": "0",
        "type": "t_address"
      },
      {
        "astId": 572,
        "contract": "temp-contracts/DelegateCallProxyManager.sol:DelegateCallProxyManager",
        "label": "_approvedDeployers",
        "offset": 0,
        "slot": "1",
        "type": "t_mapping(t_address,t_bool)"
      },
      {
        "astId": 576,
        "contract": "temp-contracts/DelegateCallProxyManager.sol:DelegateCallProxyManager",
        "label": "_implementationHolders",
        "offset": 0,
        "slot": "2",
        "type": "t_mapping(t_bytes32,t_address)"
      },
      {
        "astId": 580,
        "contract": "temp-contracts/DelegateCallProxyManager.sol:DelegateCallProxyManager",
        "label": "_lockedImplementations",
        "offset": 0,
        "slot": "3",
        "type": "t_mapping(t_address,t_bool)"
      },
      {
        "astId": 582,
        "contract": "temp-contracts/DelegateCallProxyManager.sol:DelegateCallProxyManager",
        "label": "_implementationHolder",
        "offset": 0,
        "slot": "4",
        "type": "t_address"
      }
    ],
    "types": {
      "t_address": {
        "encoding": "inplace",
        "label": "address",
        "numberOfBytes": "20"
      },
      "t_bool": {
        "encoding": "inplace",
        "label": "bool",
        "numberOfBytes": "1"
      },
      "t_bytes32": {
        "encoding": "inplace",
        "label": "bytes32",
        "numberOfBytes": "32"
      },
      "t_mapping(t_address,t_bool)": {
        "encoding": "mapping",
        "key": "t_address",
        "label": "mapping(address => bool)",
        "numberOfBytes": "32",
        "value": "t_bool"
      },
      "t_mapping(t_bytes32,t_address)": {
        "encoding": "mapping",
        "key": "t_bytes32",
        "label": "mapping(bytes32 => address)",
        "numberOfBytes": "32",
        "value": "t_address"
      }
    }
  },
  "gasEstimates": {
    "creation": {
      "codeDepositCost": "1292000",
      "executionCost": "23777",
      "totalCost": "1315777"
    },
    "external": {
      "approveDeployer(address)": "infinite",
      "computeHolderAddressManyToOne(bytes32)": "626",
      "computeProxyAddressManyToOne(address,bytes32,bytes32)": "1015",
      "computeProxyAddressOneToOne(address,bytes32)": "948",
      "createManyToOneProxyRelationship(bytes32,address)": "infinite",
      "deployProxyManyToOne(bytes32,bytes32)": "infinite",
      "deployProxyOneToOne(bytes32,address)": "infinite",
      "getImplementationHolder()": "1083",
      "getImplementationHolder(bytes32)": "1256",
      "isApprovedDeployer(address)": "1198",
      "isImplementationLocked(address)": "1177",
      "isImplementationLocked(bytes32)": "2137",
      "lockImplementationManyToOne(bytes32)": "infinite",
      "lockImplementationOneToOne(address)": "infinite",
      "owner()": "1148",
      "renounceOwnership()": "infinite",
      "revokeDeployerApproval(address)": "infinite",
      "setImplementationAddressManyToOne(bytes32,address)": "infinite",
      "setImplementationAddressOneToOne(address,address)": "infinite",
      "transferOwnership(address)": "infinite"
    },
    "internal": {
      "_setImplementation(address,address)": "infinite"
    }
  }
}